:100000000C9414010C943C010C943C010C943C01A4
:100010000C943C010C943C010C943C010C943C016C
:100020000C943C010C943C010C94EF050C945E067E
:100030000C943C010C943C010C943C010C943C014C
:100040000C943C010C943C010C943C010C943C013C
:100050000C943C010C943C010C943C010C949008D1
:100060000C943C010C943C010C943C010C943C011C
:100070000C943C010C943C010C943C010C943C010C
:100080000C943C010C943C010C943C010C943C01FC
:100090000C943C010C943C010C943C010C943C01EC
:1000A0000C943C010C943C010C943C0105010904A6
:1000B000A101A10285027508950226FF00350046C0
:1000C000FF00093009318102650075019510250195
:1000D000450105091901290881020600FF750195EE
:1000E000082501450109018102C0C005010904A1DB
:1000F00001A10285037508950226FF00350046FF21
:10010000000930093181026500750195102501450E
:100110000105091901290181020600FF75019508F1
:100120002501450109018102C0C000000000250031
:1001300028002B002E0031000000000024002700C2
:100140002A002D00300000000000230026002900B6
:100150002C002F000404040404030405020202021C
:100160000403020202020606060606060404020250
:100170000204040408020110408040102040804026
:1001800080080204018040201002011080102040ED
:1001900040200000000200090F0000030401000CD1
:1001A000000000000000000000000000000000004F
:1001B00000080B0002020201000904000001020213
:1001C0000000052400100105240101010424020699
:1001D0000524060001070581031000400904010001
:1001E000020A000000070502024000000705830222
:1001F0004000000403090412010002EF02014082E2
:1002000082013200010102030147617279204D65CC
:1002100074686572696E6768616D004442392D3299
:100220002D55534200005F0911241FBECFEFDAE0C5
:10023000DEBFCDBF11E0A0E0B1E0E8E6F6E102C02C
:1002400005900D92A233B107D9F721E0A2E3B1E006
:1002500001C01D92A53DB207E1F711E0C4E1D1E074
:1002600004C02197FE010E942C0BC331D107C9F7AE
:100270000E947D090C94320B0C940000CF93DF9305
:10028000FC01818190916C01482F490F5527551F22
:10029000483051059CF5A281B381109709F528E6F5
:1002A00031E033832283208120936A0180936B01A4
:1002B00080916D01820F808320916E01A22FB091F9
:1002C0006F018A2F821B8917E8F481813D91C82F25
:1002D000D0E0C45FDE4F38838F5F8183F2CFD901D6
:1002E00018962D913C91199721153105C1F728E6F3
:1002F00031E019963C932E931897D5CF80E0DF918B
:10030000CF91089581E0FBCFFC01809167018823A4
:1003100011F13FB7F89482E08093E9002091F20058
:10032000822F90E01816190614F481E090E08823DB
:1003300039F0289844E6409366014091F1004083EB
:10034000222339F02091F200211103C02BE62093E3
:10035000E8003FBF08958FEF9FEF0895CF93DF939D
:100360001F92CDB7DEB76983DC01ED91FC9102806D
:10037000F381E02D41E050E0BE016F5F7F4F0995B2
:100380000F90DF91CF91089583E08093E9008091F1
:10039000F200882319F08AE38093E8000895CF9350
:1003A000DF931F92CDB7DEB7FC018485958597FD5D
:1003B00008C02FEF3FEF358724870F90DF91CF9153
:1003C0000895CE0101960E948401019719F4898154
:1003D00090E0F3CF8FEF9FEFF0CF0F931F93CF936A
:1003E000DF931F92CDB7DEB78C01FC018485958524
:1003F00097FF0BC0CE0101960E948401019771F412
:10040000898190E0F80195878487F8018485958536
:100410000F90DF91CF911F910F9108958FEF9FEF74
:10042000F1CFFC018485958597FD0BC09FB7F894AB
:1004300082E08093E9008091F2009FBF90E00196F6
:1004400008959FB7F89482E08093E9008091F200CC
:100450009FBF90E00895409160015091610120910B
:100460005E0130915F0142175307B4F49091E800A8
:100470009570E1F39091E80092FD19C08093F1002E
:10048000809160019091610101968F739927892B6A
:1004900019F48EEF8093E8008091600190916101E2
:1004A0000196909361018093600181E0089580E05E
:1004B0000895EF92FF920F931F93CF93DF93F82E3F
:1004C000192FE62E042F81E0860F880F0E942B0241
:1004D00083E00E942B02CF2DD12FEC0EFD2EF11CBC
:1004E000CE15DF05B9F007FF13C0FE0184910E940D
:1004F0002B02182F80E00E942B028123219681116C
:10050000EFCFDF91CF911F910F91FF90EF90089562
:100510008881EDCF81E0F5CFDF92EF92FF920F93CC
:100520001F93CF93DF93D82E8A01EB017B01E40E5A
:10053000F51ECE15DF0559F0D7FE12C0FE018491DD
:100540000E942B0221968111F4CF0FEF1FEFC801FB
:10055000DF91CF911F910F91FF90EF90DF90089561
:100560008881EECF2FB7F89487708093E90090913F
:10057000E800892F807295FF04C09091F20080E41A
:10058000891B2FBF089583E00E94B20290E0089576
:10059000615030F02091F100FC0120830196F8CFEA
:1005A000289884E680936601089580915601811110
:1005B0000DC082E08093520184E080935301109239
:1005C00055011092540181E08093560182E591E03B
:1005D00008950F931F93CF93DF931F92CDB7DEB78C
:1005E00082E0898342E450E061EB71E080E80E94A0
:1005F0008C020E94D502DC0112960D911C9101150E
:10060000110589F0D801ED91FC910280F381E02D74
:10061000BE016F5F7F4FC801099597FD04C0F801C7
:1006200000851185ECCF89810F90DF91CF911F91CB
:100630000F910895282F30E0F901EE56FE4F949166
:10064000F901ED58FE4F84912C5A3E4FF901249147
:10065000222309F45BC09923E9F091509F30D0F434
:10066000E92FF0E0EA5CFC4F0C942C0B610365036E
:10067000450359035D034A034A034A0368036E03B3
:10068000720376037C034A038003909180009F7776
:1006900090938000E22FF0E0EE0FFF1FEA5BFE4F29
:1006A000A591B491EC91E82381E090E089F580E098
:1006B0000895909180009F7DEBCF90918000977F6F
:1006C000E7CF94B59F7794BDE5CF94B59F7DFBCFE1
:1006D000909190009F7790939000DCCF9091900044
:1006E0009F7DF9CF90919000977FF5CF9091C000BA
:1006F0009F779093C000CECF9091C0009F7DF9CF9F
:100700009091C200977F9093C200C4CF80E090E0A8
:100710000895CF93DF9390E0FC01ED58FE4F2491B4
:100720008C5A9E4FFC0184918823D1F090E0880F71
:10073000991FFC01E85CFE4FA591B491FC01E65DB8
:10074000FE4FC591D491623071F49FB7F8943C91FB
:10075000822F809583238C93E8812E2B28839FBF43
:10076000DF91CF9108958FB7F894EC912E2B2C93B5
:100770008FBFF6CF3FB7F89480914E0190914F0113
:10078000A0915001B091510126B5A89B05C02F3F03
:1007900019F00196A11DB11D3FBFBA2FA92F982FA7
:1007A0008827BC01CD01620F711D811D911D42E0A2
:1007B000660F771F881F991F4A95D1F708958F926A
:1007C0009F92AF92BF92CF92DF92EF92FF926B0116
:1007D0007C010E94BA034B015C01C114D104E10405
:1007E000F104B9F00E94BA03681979098A099B09D2
:1007F000683E73408105910580F321E0C21AD1085B
:10080000E108F10888EE880E83E0981EA11CB11C57
:10081000E4CFFF90EF90DF90CF90BF90AF909F908C
:100820008F9008957F928F929F92AF92BF92CF92B6
:10083000DF92EF92FF920F931F93CF93DF93C82E17
:100840008B017A0180916701811110C08FEF9FEFBA
:10085000DF91CF911F910F91FF90EF90DF90CF909C
:10086000BF90AF909F908F907F900895809164018A
:1008700080FF05C08091E00082608093E000CE2D73
:10088000DF2DD12C8AEFB82E8C2D8770982E8C2DD1
:100890008072882E8C2D8074782E9AE3A92E209752
:1008A00019F4DD2009F452C08C2D0E94B20281118E
:1008B0000AC0BA94BB2051F261E070E080E090E0A1
:1008C0000E94DF03ECCF8C171D0611F00CF08C2F6B
:1008D0009FB7F8949092E9002091E80025FD02C0AE
:1008E0009FBFDDCF282F30E0C21BD30B882029F01B
:1008F0008150A0F01092F100FBCFF801C7FC0AC0B4
:10090000815050F041914093F100FACF44914093CF
:10091000F10031968150D0F7020F131FDD2021F036
:10092000A092E800D12CDCCF8091E80085FD07C0C3
:10093000A092E800DD24D394209791F2F3CF209782
:1009400079F6772069F2A092E800CACF5D9884E634
:1009500080936301C7017CCFCF93DF93EC0180913B
:100960000B01882331F083E00E9412041816190647
:1009700034F081E090E09B838A8380E090E0DF9117
:10098000CF910895DC01FB0112962C91129784817E
:1009900095812817190641F491818081813A31F4BB
:1009A0009D7F81E0913009F080E008958132E1F788
:1009B0009B3029F482811F968C9381E008959A30B0
:1009C00099F7828150968C93F8CFDC01FB0188E483
:1009D000808389E4818384E482831D969C911D97A2
:1009E0009F709F5B93831D968D919C9124E09695BB
:1009F00087952A95E1F78F708F5B848385E0089552
:100A0000EF92FF920F931F93CF93DF93FB0120810F
:100A1000213871F52381223259F5DC0112964C916F
:100A2000248135814217130619F5EC010B851C85CD
:100A3000F12CE12C0115110589F0F8014481558153
:100A40006281738180E80E948C028F3F980749F091
:100A5000E80EF91ED8010D911C91ECCF81E08F8733
:100A6000C701DF91CF911F910F91FF90EF900895F3
:100A700090E080E0F6CFCF93DF93CDB7DEB76997F4
:100A80000FB6F894DEBF0FBECDBFFC01DB018C9129
:100A90008F5F8C939E012D5F3F4F8DE0D9011D929A
:100AA0008A95E9F729E0298384E08A8391E09D8390
:100AB00083E08E832A8721E22B879C879D879F87EF
:100AC00022E2288B27E02B8B25E02C8B8E8B20E4D9
:100AD00030E0388F2F8B998F82818B839585868527
:100AE000998B8A8B838180688D8B49E150E0BE01B0
:100AF0006F5F7F4F80E00E948C0269960FB6F8947A
:100B0000DEBF0FBECDBFDF91CF910895FF920F934F
:100B10001F93CF93DF9300D000D000D0CDB7DEB7C6
:100B20008C01FC018281898383818A839481858100
:100B30009B838C831D828091410181112BC0FF24F6
:100B4000F394F0926C01F0926D0182E791E0909342
:100B50006F0180936E01109271011092700187E114
:100B600091E0909369018093680110927401109252
:100B700073011092760110927501F0927701F09254
:100B8000780181EC809372010E94D5020E943E019F
:100B9000F0924101F80180818E5F8E8341E050E048
:100BA000BE016A5F7F4F80916B010E94120497FD26
:100BB0000AC080916B0145E050E0BE016F5F7F4F3E
:100BC00080640E94120426960FB6F894DEBF0FBE12
:100BD000CDBFDF91CF911F910F91FF9008951F928C
:100BE0000F920FB60F9211248F939F938091E10083
:100BF0009091E100937F9093E10083FF0FC01092EA
:100C0000E90091E09093EB001092EC0092E3909356
:100C1000ED001092670198E09093F00082FF22C0EF
:100C200093E09093E9009091F200992319F09AE3F0
:100C30009093E80090916301992341F090916301B2
:100C4000915090936301911101C05D9A909166015A
:100C5000992341F090916601915090936601911112
:100C600001C0289A84FF18C08091E2008E7E8160C6
:100C70008093E2008091E1008F7E8093E10080917B
:100C800064018E7E8061809364019F918F910F90AB
:100C90000FBE0F901F90189580FFF7CF8091E20054
:100CA0008E7E80618093E2008091E1008E7E809351
:100CB000E100809164018E7E8160E5CF1F920F92EA
:100CC0000FB60F921124CF92DF92EF92FF920F9303
:100CD0001F932F933F934F935F936F937F938F93C4
:100CE0009F93AF93BF93EF93FF93CF93DF93CDB7D2
:100CF000DEB76C97DEBFCDBF1092E9008091E800AF
:100D000083FF25C068E0CE0145960E94C80282EFAD
:100D10008093E8008D8987FF39C09091E80090FFAB
:100D2000FCCF982F907609F034C19E894F89588D59
:100D30002F89F88C911131C0803861F5809165015F
:100D40008093F1001092F1008EEF8093E8006C9692
:100D50000FB6F894DEBF0FBECDBFDF91CF91FF91EC
:100D6000EF91BF91AF919F918F917F916F915F9123
:100D70004F913F912F911F910F91FF90EF90DF9036
:100D8000CF900F900FBE0F901F9018959EEF9093ED
:100D9000E800C7CF1092F100D5CF913059F48111FE
:100DA000D3CF4130510581F6809165018D7F8093CD
:100DB0006501CACF933049F48111C6CF4130510546
:100DC00019F6809165018260F2CF953041F48091EF
:100DD000E80080FFFCCF20682093E300B5CF963079
:100DE00009F0A9C00B8D1C8D22E01092E900109231
:100DF000610110926001F2122EC010925F011092F8
:100E00005E010E94E9021F8299E09983FA8291E0D3
:100E10009E8390EA98879AEF99872091600130919C
:100E20006101275F3F4F3C832B838D831092E90044
:100E3000109261011092600110935F0100935E01B6
:100E400049E050E0BE016F5F7F4F80E00E948C025E
:100E50000E94E90279CF10935F0100935E010E9426
:100E6000D502DC0112960D911C910115110509F4B2
:100E700051C1D801ED91FC910480F581E02DBE01B6
:100E80006B5E7F4FC8010995009709F03EC1F801DC
:100E900000851185EACFF3E0FF120EC08F89882309
:100EA00009F440C0823061F440E869E08BE192E0EF
:100EB0000E945902811148CF81E28093EB0047CF15
:100EC000813029F440E861E189E092E0F1CF83309C
:100ED00099F70E94D502DC011296ED90FC908E01EC
:100EE0000F5F1F4F6801E114F10479F0D701ED9114
:100EF000FC910680F781E02DB801C7010995080F24
:100F0000111DF701E084F184EECFD8011C92F601A7
:100F100001900020E9F73197BF016C197D0940E08D
:100F2000C601C6CF63EF71E0FB01449150E080E859
:100F30000E948C0209CF973009F4BECF983021F47B
:100F400081E08093F10000CF993009F0FDCE8370ED
:100F500009F0B2CFEDE0F1E081E031E096E32191DC
:100F6000222371F08093E9003093EB00DF011197A9
:100F70002C912093EC009093ED008F5F873079F7F0
:100F80008EE78093EA001092EA008F8980936701D0
:100F9000DBCE8B8D9C8D1092E90010926101109236
:100FA000600190935F0180935E01898D811192C0F1
:100FB0008E899D89913A49F4813209F07DCF47E0CD
:100FC00050E064E071E080E0B3CF913209F074CF7B
:100FD000833269F48F89988DB0E0A0E0809300019E
:100FE00090930101A0930201B0930301ADCE803232
:100FF00069F48091E80082FFFCCF67E084E091E033
:101000000E94C8028BEF8093E8009ECE823209F0E6
:101010009BCE8F8980930B01EEEFFFE78591949132
:101020008B3F9C4D51F1E0E0F8E0809104019091FC
:101030000501A0910601B0910701803B9440A105F4
:10104000B105F1F480910B0180FD1AC0EE3F8AE0FA
:10105000F80789F587E797E791838083809160009F
:101060008093620188E19BE00FB6F894A895809385
:1010700060000FBE9093600067CEEEEFFAE0D5CF30
:10108000808191818737974709F05ECEA89580913E
:1010900060008861809360008091620180936000AD
:1010A000EE3F2AE0F20789F08091FE0A9091FF0A54
:1010B0009183808349CE808191818737980751F24F
:1010C0009093FF0A8093FE0AC5CF1092FF0A1092F8
:1010D000FE0A3ACE0E94D502DC0112960D911C91B7
:1010E0000115110509F4E8CED801ED91FC910190AC
:1010F000F081E02DBE016B5E7F4FC8010995811123
:1011000023CEF80100851185EBCF181619060CF4D3
:101110001BCED2CEF1E0FF12BECE67EF71E004CF5E
:101120001F920F920FB60F9211242F933F938F931C
:101130009F93AF93BF9380914A0190914B01A091EF
:101140004C01B0914D013091490123E0230F2D371F
:1011500058F50196A11DB11D2093490180934A01C4
:1011600090934B01A0934C01B0934D0180914E019F
:1011700090914F01A0915001B09151010196A11D94
:10118000B11D80934E0190934F01A0935001B093F5
:101190005101BF91AF919F918F913F912F910F90EE
:1011A0000FBE0F901F90189526E8230F0296A11DE1
:1011B000B11DD2CF0F931F93CF93DF93EC01062F76
:1011C0008FE78A838B831D821C828091400181116D
:1011D00062C080913801811113C0109233011092C6
:1011E00032018CEA90E090933501809334018EE7D0
:1011F00090E0909337018093360181E0809338012D
:101200008091410181112AC011E010936C0110936B
:101210006D0182E791E090936F0180936E011092CF
:1012200071011092700187E191E0909369018093C0
:10123000680110927401109273011092760110925D
:101240007501109377011093780181EC80937201FE
:101250000E94D5020E943E0110934101E09173016A
:10126000F0917401309711F582E391E0909374014D
:1012700080937301809175019091760120913601E0
:1012800030913701820F931F9093760180937501FF
:1012900081E08093400108831A821B821D821C8298
:1012A000DF91CF911F910F910895FC018081918171
:1012B0000097D9F782E391E091838083DBCFE9E760
:1012C000F1E01382128288EE93E0A0E0B0E0848324
:1012D0009583A683B78383E291E0918380838FEF28
:1012E0009FEF9587848760E089EC91E00E94DA089F
:1012F00061E08FEC91E00C94DA08789484B5826018
:1013000084BD84B5816084BD85B5826085BD85B5A9
:10131000816085BD80916E00816080936E00109227
:1013200081008091810082608093810080918100A2
:101330008160809381008091800081608093800033
:1013400080919100826080939100809191008160F2
:1013500080939100809190008160809390008091B3
:10136000C10084608093C1008091C100826080933D
:10137000C1008091C10081608093C1008091C30051
:1013800081608093C3008091C00082608093C00020
:101390008091C20081608093C20080917A00846055
:1013A00080937A0080917A00826080937A008091A5
:1013B0007A00816080937A0080917A0080688093BF
:1013C0007A00109267011092650110926401809179
:1013D000D70081608093D70080EA8093D80089B5D8
:1013E000806189BD89B5826089BD09B400FEFDCFE9
:1013F00061E070E080E090E00E94DF038091D8001F
:101400008F7C80618093D8008091E000807F809302
:10141000E0008091E1008E7E8093E1008DE080937A
:10142000E200559A209A61E081E00E94890361E020
:1014300080E00E94890362E084E00E94890362E008
:1014400085E00E94890362E086E00E94890362E0F1
:1014500087E00E94890362E088E00E94890362E0DD
:1014600085E10E94890362E084E10E94890362E0D1
:1014700083E10E94890362E082E10E94890362E0C5
:101480008FE00E94890362E08EE00E94890362E09F
:1014900089E00E94890362E08AE00E94890362E099
:1014A00080E10E94890362E082E00E94890362E099
:1014B00083E00E948903CFE700E010E0DFEF1092A5
:1014C000CE011092CD01C093CB01C093CC011092FC
:1014D000D4011092D301C093D101C093D20188E00E
:1014E0000E941A03892B49F48091CD019091CE017D
:1014F00081609093CE018093CD018EE00E941A030B
:10150000892B49F48091CD019091CE018068909310
:10151000CE018093CD0189E00E941A03892B49F402
:101520008091CD019091CE0180619093CE01809306
:10153000CD018AE00E941A03892B49F48091CD01E4
:101540009091CE0180629093CE018093CD0180E195
:101550000E941A03892B49F48091CD019091CE010C
:1015600080649093CE018093CD0182E00E941A03A3
:10157000892B49F48091CD019091CE0184609093A4
:10158000CE018093CD0183E00E941A03892B49F498
:101590008091CD019091CE0188609093CE0180938F
:1015A000CD0184E00E941A03892B11F41092CC0122
:1015B00087E00E941A03892B11F4D093CB0185E0B8
:1015C0000E941A03892B11F4D093CC0186E00E946B
:1015D0001A03892B11F41092CB018FE00E941A0399
:1015E000892B49F48091D3019091D401816090932B
:1015F000D4018093D30185E10E941A03892B11F451
:101600001092D20184E10E941A03892B11F4D09325
:10161000D20183E10E941A03892B11F41092D101A7
:1016200082E10E941A03892B11F4D093D10189EC35
:1016300091E00E9486058FEC91E00E94860561E0B2
:1016400070E080E090E00E94DF030115110509F4CD
:1016500036CF0E94000033CFEE0FFF1F0590F491AC
:08166000E02D0994F894FFCF7E
:10166800FFFFFFFF00E100000000000000C18081D3
:1016780000000000000000C2043B050005E504006E
:10168800000000AE01AC04C302C4011102CF01ED99
:0216980001004F
:00000001FF
